{
  "_format": "hh-sol-artifact-1",
  "contractName": "MyEpicNFT",
  "sourceName": "contracts/MyEpicNFT.sol",
  "abi": [
    {
      "inputs": [],
      "stateMutability": "nonpayable",
      "type": "constructor"
    },
    {
      "anonymous": false,
      "inputs": [
        {
          "indexed": true,
          "internalType": "address",
          "name": "owner",
          "type": "address"
        },
        {
          "indexed": true,
          "internalType": "address",
          "name": "approved",
          "type": "address"
        },
        {
          "indexed": true,
          "internalType": "uint256",
          "name": "tokenId",
          "type": "uint256"
        }
      ],
      "name": "Approval",
      "type": "event"
    },
    {
      "anonymous": false,
      "inputs": [
        {
          "indexed": true,
          "internalType": "address",
          "name": "owner",
          "type": "address"
        },
        {
          "indexed": true,
          "internalType": "address",
          "name": "operator",
          "type": "address"
        },
        {
          "indexed": false,
          "internalType": "bool",
          "name": "approved",
          "type": "bool"
        }
      ],
      "name": "ApprovalForAll",
      "type": "event"
    },
    {
      "anonymous": false,
      "inputs": [
        {
          "indexed": false,
          "internalType": "address",
          "name": "sender",
          "type": "address"
        },
        {
          "indexed": false,
          "internalType": "uint256",
          "name": "tokenId",
          "type": "uint256"
        }
      ],
      "name": "NewEpicNFTMinted",
      "type": "event"
    },
    {
      "anonymous": false,
      "inputs": [
        {
          "indexed": false,
          "internalType": "uint256",
          "name": "tokenId",
          "type": "uint256"
        }
      ],
      "name": "NewTotalMintCount",
      "type": "event"
    },
    {
      "anonymous": false,
      "inputs": [
        {
          "indexed": true,
          "internalType": "address",
          "name": "from",
          "type": "address"
        },
        {
          "indexed": true,
          "internalType": "address",
          "name": "to",
          "type": "address"
        },
        {
          "indexed": true,
          "internalType": "uint256",
          "name": "tokenId",
          "type": "uint256"
        }
      ],
      "name": "Transfer",
      "type": "event"
    },
    {
      "inputs": [
        {
          "internalType": "address",
          "name": "to",
          "type": "address"
        },
        {
          "internalType": "uint256",
          "name": "tokenId",
          "type": "uint256"
        }
      ],
      "name": "approve",
      "outputs": [],
      "stateMutability": "nonpayable",
      "type": "function"
    },
    {
      "inputs": [
        {
          "internalType": "address",
          "name": "owner",
          "type": "address"
        }
      ],
      "name": "balanceOf",
      "outputs": [
        {
          "internalType": "uint256",
          "name": "",
          "type": "uint256"
        }
      ],
      "stateMutability": "view",
      "type": "function"
    },
    {
      "inputs": [
        {
          "internalType": "uint256",
          "name": "tokenId",
          "type": "uint256"
        }
      ],
      "name": "getApproved",
      "outputs": [
        {
          "internalType": "address",
          "name": "",
          "type": "address"
        }
      ],
      "stateMutability": "view",
      "type": "function"
    },
    {
      "inputs": [],
      "name": "getTokenIds",
      "outputs": [
        {
          "internalType": "uint256",
          "name": "",
          "type": "uint256"
        }
      ],
      "stateMutability": "view",
      "type": "function"
    },
    {
      "inputs": [
        {
          "internalType": "address",
          "name": "owner",
          "type": "address"
        },
        {
          "internalType": "address",
          "name": "operator",
          "type": "address"
        }
      ],
      "name": "isApprovedForAll",
      "outputs": [
        {
          "internalType": "bool",
          "name": "",
          "type": "bool"
        }
      ],
      "stateMutability": "view",
      "type": "function"
    },
    {
      "inputs": [],
      "name": "makeAnEpicNFT",
      "outputs": [],
      "stateMutability": "nonpayable",
      "type": "function"
    },
    {
      "inputs": [],
      "name": "name",
      "outputs": [
        {
          "internalType": "string",
          "name": "",
          "type": "string"
        }
      ],
      "stateMutability": "view",
      "type": "function"
    },
    {
      "inputs": [
        {
          "internalType": "uint256",
          "name": "tokenId",
          "type": "uint256"
        }
      ],
      "name": "ownerOf",
      "outputs": [
        {
          "internalType": "address",
          "name": "",
          "type": "address"
        }
      ],
      "stateMutability": "view",
      "type": "function"
    },
    {
      "inputs": [
        {
          "internalType": "uint256",
          "name": "tokenId",
          "type": "uint256"
        }
      ],
      "name": "pickRandomFirstWord",
      "outputs": [
        {
          "internalType": "string",
          "name": "",
          "type": "string"
        }
      ],
      "stateMutability": "view",
      "type": "function"
    },
    {
      "inputs": [
        {
          "internalType": "uint256",
          "name": "tokenId",
          "type": "uint256"
        }
      ],
      "name": "pickRandomSecondWord",
      "outputs": [
        {
          "internalType": "string",
          "name": "",
          "type": "string"
        }
      ],
      "stateMutability": "view",
      "type": "function"
    },
    {
      "inputs": [
        {
          "internalType": "uint256",
          "name": "tokenId",
          "type": "uint256"
        }
      ],
      "name": "pickRandomThirdWord",
      "outputs": [
        {
          "internalType": "string",
          "name": "",
          "type": "string"
        }
      ],
      "stateMutability": "view",
      "type": "function"
    },
    {
      "inputs": [
        {
          "internalType": "address",
          "name": "from",
          "type": "address"
        },
        {
          "internalType": "address",
          "name": "to",
          "type": "address"
        },
        {
          "internalType": "uint256",
          "name": "tokenId",
          "type": "uint256"
        }
      ],
      "name": "safeTransferFrom",
      "outputs": [],
      "stateMutability": "nonpayable",
      "type": "function"
    },
    {
      "inputs": [
        {
          "internalType": "address",
          "name": "from",
          "type": "address"
        },
        {
          "internalType": "address",
          "name": "to",
          "type": "address"
        },
        {
          "internalType": "uint256",
          "name": "tokenId",
          "type": "uint256"
        },
        {
          "internalType": "bytes",
          "name": "data",
          "type": "bytes"
        }
      ],
      "name": "safeTransferFrom",
      "outputs": [],
      "stateMutability": "nonpayable",
      "type": "function"
    },
    {
      "inputs": [
        {
          "internalType": "address",
          "name": "operator",
          "type": "address"
        },
        {
          "internalType": "bool",
          "name": "approved",
          "type": "bool"
        }
      ],
      "name": "setApprovalForAll",
      "outputs": [],
      "stateMutability": "nonpayable",
      "type": "function"
    },
    {
      "inputs": [
        {
          "internalType": "bytes4",
          "name": "interfaceId",
          "type": "bytes4"
        }
      ],
      "name": "supportsInterface",
      "outputs": [
        {
          "internalType": "bool",
          "name": "",
          "type": "bool"
        }
      ],
      "stateMutability": "view",
      "type": "function"
    },
    {
      "inputs": [],
      "name": "symbol",
      "outputs": [
        {
          "internalType": "string",
          "name": "",
          "type": "string"
        }
      ],
      "stateMutability": "view",
      "type": "function"
    },
    {
      "inputs": [
        {
          "internalType": "uint256",
          "name": "tokenId",
          "type": "uint256"
        }
      ],
      "name": "tokenURI",
      "outputs": [
        {
          "internalType": "string",
          "name": "",
          "type": "string"
        }
      ],
      "stateMutability": "view",
      "type": "function"
    },
    {
      "inputs": [
        {
          "internalType": "address",
          "name": "from",
          "type": "address"
        },
        {
          "internalType": "address",
          "name": "to",
          "type": "address"
        },
        {
          "internalType": "uint256",
          "name": "tokenId",
          "type": "uint256"
        }
      ],
      "name": "transferFrom",
      "outputs": [],
      "stateMutability": "nonpayable",
      "type": "function"
    }
  ],
  "bytecode": "0x608060405260405180610160016040528061012f81526020016200423c61012f913960089080519060200190620000389291906200067e565b506040518060c001604052806040518060400160405280600481526020017f457069630000000000000000000000000000000000000000000000000000000081525081526020016040518060400160405280600981526020017f46616e746173746963000000000000000000000000000000000000000000000081525081526020016040518060400160405280600581526020017f437275646500000000000000000000000000000000000000000000000000000081525081526020016040518060400160405280600581526020017f4372617a7900000000000000000000000000000000000000000000000000000081525081526020016040518060400160405280600a81526020017f4879737465726963616c0000000000000000000000000000000000000000000081525081526020016040518060400160405280600581526020017f4772616e640000000000000000000000000000000000000000000000000000008152508152506009906006620001b69291906200070f565b506040518060c001604052806040518060400160405280600481526020017f4d6574610000000000000000000000000000000000000000000000000000000081525081526020016040518060400160405280600481526020017f4c6976650000000000000000000000000000000000000000000000000000000081525081526020016040518060400160405280600381526020017f506f70000000000000000000000000000000000000000000000000000000000081525081526020016040518060400160405280600481526020017f437574650000000000000000000000000000000000000000000000000000000081525081526020016040518060400160405280600581526020017f537765657400000000000000000000000000000000000000000000000000000081525081526020016040518060400160405280600381526020017f486f740000000000000000000000000000000000000000000000000000000000815250815250600a906006620003349291906200070f565b506040518060c001604052806040518060400160405280600681526020017f4b697474656e000000000000000000000000000000000000000000000000000081525081526020016040518060400160405280600581526020017f507570707900000000000000000000000000000000000000000000000000000081525081526020016040518060400160405280600681526020017f4d6f6e6b6579000000000000000000000000000000000000000000000000000081525081526020016040518060400160405280600481526020017f426972640000000000000000000000000000000000000000000000000000000081525081526020016040518060400160405280600581526020017f50616e646100000000000000000000000000000000000000000000000000000081525081526020016040518060400160405280600881526020017f456c657068616e74000000000000000000000000000000000000000000000000815250815250600b906006620004b29291906200070f565b50348015620004c057600080fd5b506040518060400160405280600981526020017f5371756172654e465400000000000000000000000000000000000000000000008152506040518060400160405280600681526020017f53515541524500000000000000000000000000000000000000000000000000008152508160009080519060200190620005459291906200067e565b5080600190805190602001906200055e9291906200067e565b505050620005ac6040518060400160405280601881526020017f54686973206973206d79204e465420636f6e74726163742e0000000000000000815250620005b260201b620011bd1760201c565b62000930565b6200065281604051602401620005c9919062000844565b6040516020818303038152906040527f41304fac000000000000000000000000000000000000000000000000000000007bffffffffffffffffffffffffffffffffffffffffffffffffffffffff19166020820180517bffffffffffffffffffffffffffffffffffffffffffffffffffffffff83818316178352505050506200065560201b60201c565b50565b60008151905060006a636f6e736f6c652e6c6f679050602083016000808483855afa5050505050565b8280546200068c90620008ba565b90600052602060002090601f016020900481019282620006b05760008555620006fc565b82601f10620006cb57805160ff1916838001178555620006fc565b82800160010185558215620006fc579182015b82811115620006fb578251825591602001919060010190620006de565b5b5090506200070b919062000776565b5090565b82805482825590600052602060002090810192821562000763579160200282015b8281111562000762578251829080519060200190620007519291906200067e565b509160200191906001019062000730565b5b50905062000772919062000795565b5090565b5b808211156200079157600081600090555060010162000777565b5090565b5b80821115620007b95760008181620007af9190620007bd565b5060010162000796565b5090565b508054620007cb90620008ba565b6000825580601f10620007df575062000800565b601f016020900490600052602060002090810190620007ff919062000776565b5b50565b6000620008108262000868565b6200081c818562000873565b93506200082e81856020860162000884565b62000839816200091f565b840191505092915050565b6000602082019050818103600083015262000860818462000803565b905092915050565b600081519050919050565b600082825260208201905092915050565b60005b83811015620008a457808201518184015260208101905062000887565b83811115620008b4576000848401525b50505050565b60006002820490506001821680620008d357607f821691505b60208210811415620008ea57620008e9620008f0565b5b50919050565b7f4e487b7100000000000000000000000000000000000000000000000000000000600052602260045260246000fd5b6000601f19601f8301169050919050565b6138fc80620009406000396000f3fe608060405234801561001057600080fd5b50600436106101165760003560e01c806370a08231116100a2578063b88d4fde11610071578063b88d4fde14610305578063c575757a14610321578063c87b56dd14610351578063de9d132f14610381578063e985e9c51461038b57610116565b806370a082311461026b57806395d89b411461029b578063a22cb465146102b9578063b187301f146102d557610116565b806323b872dd116100e957806323b872dd146101b55780632de38d68146101d157806342842e0e146102015780636352211e1461021d57806367f718a91461024d57610116565b806301ffc9a71461011b57806306fdde031461014b578063081812fc14610169578063095ea7b314610199575b600080fd5b61013560048036038101906101309190612648565b6103bb565b6040516101429190612cc6565b60405180910390f35b61015361049d565b6040516101609190612ce1565b60405180910390f35b610183600480360381019061017e919061269a565b61052f565b6040516101909190612c36565b60405180910390f35b6101b360048036038101906101ae919061260c565b610575565b005b6101cf60048036038101906101ca9190612506565b61068d565b005b6101eb60048036038101906101e6919061269a565b6106ed565b6040516101f89190612ce1565b60405180910390f35b61021b60048036038101906102169190612506565b610889565b005b6102376004803603810190610232919061269a565b6108a9565b6040516102449190612c36565b60405180910390f35b61025561095b565b6040516102629190612ef1565b60405180910390f35b610285600480360381019061028091906124a1565b61096c565b6040516102929190612ef1565b60405180910390f35b6102a3610a24565b6040516102b09190612ce1565b60405180910390f35b6102d360048036038101906102ce91906125d0565b610ab6565b005b6102ef60048036038101906102ea919061269a565b610acc565b6040516102fc9190612ce1565b60405180910390f35b61031f600480360381019061031a9190612555565b610bea565b005b61033b6004803603810190610336919061269a565b610c4c565b6040516103489190612ce1565b60405180910390f35b61036b6004803603810190610366919061269a565b610d6a565b6040516103789190612ce1565b60405180910390f35b610389610e7d565b005b6103a560048036038101906103a091906124ca565b611129565b6040516103b29190612cc6565b60405180910390f35b60007f80ac58cd000000000000000000000000000000000000000000000000000000007bffffffffffffffffffffffffffffffffffffffffffffffffffffffff1916827bffffffffffffffffffffffffffffffffffffffffffffffffffffffff1916148061048657507f5b5e139f000000000000000000000000000000000000000000000000000000007bffffffffffffffffffffffffffffffffffffffffffffffffffffffff1916827bffffffffffffffffffffffffffffffffffffffffffffffffffffffff1916145b80610496575061049582611256565b5b9050919050565b6060600080546104ac90613185565b80601f01602080910402602001604051908101604052809291908181526020018280546104d890613185565b80156105255780601f106104fa57610100808354040283529160200191610525565b820191906000526020600020905b81548152906001019060200180831161050857829003601f168201915b5050505050905090565b600061053a826112c0565b6004600083815260200190815260200160002060009054906101000a900473ffffffffffffffffffffffffffffffffffffffff169050919050565b6000610580826108a9565b90508073ffffffffffffffffffffffffffffffffffffffff168373ffffffffffffffffffffffffffffffffffffffff1614156105f1576040517f08c379a00000000000000000000000000000000000000000000000000000000081526004016105e890612eb1565b60405180910390fd5b8073ffffffffffffffffffffffffffffffffffffffff1661061061130b565b73ffffffffffffffffffffffffffffffffffffffff16148061063f575061063e8161063961130b565b611129565b5b61067e576040517f08c379a000000000000000000000000000000000000000000000000000000000815260040161067590612e51565b60405180910390fd5b6106888383611313565b505050565b61069e61069861130b565b826113cc565b6106dd576040517f08c379a00000000000000000000000000000000000000000000000000000000081526004016106d490612ed1565b60405180910390fd5b6106e8838383611461565b505050565b606060006107216106fd846116c8565b60405160200161070d9190612bf2565b604051602081830303815290604052611875565b90506107626040518060400160405280600d81526020017f72616e64202d20736565643a2000000000000000000000000000000000000000815250826118a8565b600980549050816107739190613231565b90506107b46040518060400160405280601381526020017f72616e64202d20666972737420776f72643a2000000000000000000000000000815250826118a8565b600981815481106107ee577f4e487b7100000000000000000000000000000000000000000000000000000000600052603260045260246000fd5b90600052602060002001805461080390613185565b80601f016020809104026020016040519081016040528092919081815260200182805461082f90613185565b801561087c5780601f106108515761010080835404028352916020019161087c565b820191906000526020600020905b81548152906001019060200180831161085f57829003601f168201915b5050505050915050919050565b6108a483838360405180602001604052806000815250610bea565b505050565b6000806002600084815260200190815260200160002060009054906101000a900473ffffffffffffffffffffffffffffffffffffffff169050600073ffffffffffffffffffffffffffffffffffffffff168173ffffffffffffffffffffffffffffffffffffffff161415610952576040517f08c379a000000000000000000000000000000000000000000000000000000000815260040161094990612e91565b60405180910390fd5b80915050919050565b60006109676007611944565b905090565b60008073ffffffffffffffffffffffffffffffffffffffff168273ffffffffffffffffffffffffffffffffffffffff1614156109dd576040517f08c379a00000000000000000000000000000000000000000000000000000000081526004016109d490612e11565b60405180910390fd5b600360008373ffffffffffffffffffffffffffffffffffffffff1673ffffffffffffffffffffffffffffffffffffffff168152602001908152602001600020549050919050565b606060018054610a3390613185565b80601f0160208091040260200160405190810160405280929190818152602001828054610a5f90613185565b8015610aac5780601f10610a8157610100808354040283529160200191610aac565b820191906000526020600020905b815481529060010190602001808311610a8f57829003601f168201915b5050505050905090565b610ac8610ac161130b565b8383611952565b5050565b60606000610b00610adc846116c8565b604051602001610aec9190612b8b565b604051602081830303815290604052611875565b9050600a8054905081610b139190613231565b9050600a8181548110610b4f577f4e487b7100000000000000000000000000000000000000000000000000000000600052603260045260246000fd5b906000526020600020018054610b6490613185565b80601f0160208091040260200160405190810160405280929190818152602001828054610b9090613185565b8015610bdd5780601f10610bb257610100808354040283529160200191610bdd565b820191906000526020600020905b815481529060010190602001808311610bc057829003601f168201915b5050505050915050919050565b610bfb610bf561130b565b836113cc565b610c3a576040517f08c379a0000000000000000000000000000000000000000000000000000000008152600401610c3190612ed1565b60405180910390fd5b610c4684848484611abf565b50505050565b60606000610c80610c5c846116c8565b604051602001610c6c9190612b69565b604051602081830303815290604052611875565b9050600b8054905081610c939190613231565b9050600b8181548110610ccf577f4e487b7100000000000000000000000000000000000000000000000000000000600052603260045260246000fd5b906000526020600020018054610ce490613185565b80601f0160208091040260200160405190810160405280929190818152602001828054610d1090613185565b8015610d5d5780601f10610d3257610100808354040283529160200191610d5d565b820191906000526020600020905b815481529060010190602001808311610d4057829003601f168201915b5050505050915050919050565b6060610d75826112c0565b6000600660008481526020019081526020016000208054610d9590613185565b80601f0160208091040260200160405190810160405280929190818152602001828054610dc190613185565b8015610e0e5780601f10610de357610100808354040283529160200191610e0e565b820191906000526020600020905b815481529060010190602001808311610df157829003601f168201915b505050505090506000610e1f611b1b565b9050600081511415610e35578192505050610e78565b600082511115610e6a578082604051602001610e52929190612ae5565b60405160208183030381529060405292505050610e78565b610e7384611b32565b925050505b919050565b6000610e896007611944565b90506000610e96826106ed565b90506000610ea383610acc565b90506000610eb084610c4c565b90506000838383604051602001610ec993929190612b09565b60405160208183030381529060405290506000600882604051602001610ef0929190612b3a565b6040516020818303038152906040529050610f3f6040518060400160405280601581526020017f0a2d2d2d2d2d205356472064617461202d2d2d2d2d00000000000000000000008152506111bd565b610f48816111bd565b610f866040518060400160405280601581526020017f2d2d2d2d2d2d2d2d2d2d2d2d2d2d2d2d2d2d2d2d0a00000000000000000000008152506111bd565b6000610fba83610f9584611b9a565b604051602001610fa6929190612bad565b604051602081830303815290604052611b9a565b9050600081604051602001610fcf9190612c14565b604051602081830303815290604052905061101e6040518060400160405280601581526020017f0a2d2d2d2d2d20546f6b656e20555249202d2d2d2d00000000000000000000008152506111bd565b611027816111bd565b6110656040518060400160405280601581526020017f2d2d2d2d2d2d2d2d2d2d2d2d2d2d2d2d2d2d2d2d0a00000000000000000000008152506111bd565b61106f3389611d58565b6110798882611d76565b61109c604051806060016040528060258152602001613862602591398933611dea565b6110a66007611e89565b7febb98688741ffa4c7589bf325de30cf7becb63de567842e1ccdb6cb949fdc82c33896040516110d7929190612c9d565b60405180910390a17f721dcf09d65813de25914b85c0ccb68dc942592df0f1a1b3a1d197edcaba512761110a6007611944565b6040516111179190612ef1565b60405180910390a15050505050505050565b6000600560008473ffffffffffffffffffffffffffffffffffffffff1673ffffffffffffffffffffffffffffffffffffffff16815260200190815260200160002060008373ffffffffffffffffffffffffffffffffffffffff1673ffffffffffffffffffffffffffffffffffffffff16815260200190815260200160002060009054906101000a900460ff16905092915050565b611253816040516024016111d19190612ce1565b6040516020818303038152906040527f41304fac000000000000000000000000000000000000000000000000000000007bffffffffffffffffffffffffffffffffffffffffffffffffffffffff19166020820180517bffffffffffffffffffffffffffffffffffffffffffffffffffffffff8381831617835250505050611e9f565b50565b60007f01ffc9a7000000000000000000000000000000000000000000000000000000007bffffffffffffffffffffffffffffffffffffffffffffffffffffffff1916827bffffffffffffffffffffffffffffffffffffffffffffffffffffffff1916149050919050565b6112c981611ec8565b611308576040517f08c379a00000000000000000000000000000000000000000000000000000000081526004016112ff90612e91565b60405180910390fd5b50565b600033905090565b816004600083815260200190815260200160002060006101000a81548173ffffffffffffffffffffffffffffffffffffffff021916908373ffffffffffffffffffffffffffffffffffffffff160217905550808273ffffffffffffffffffffffffffffffffffffffff16611386836108a9565b73ffffffffffffffffffffffffffffffffffffffff167f8c5be1e5ebec7d5bd14f71427d1e84f3dd0314c0f7b2291e5b200ac8c7c3b92560405160405180910390a45050565b6000806113d8836108a9565b90508073ffffffffffffffffffffffffffffffffffffffff168473ffffffffffffffffffffffffffffffffffffffff16148061141a57506114198185611129565b5b8061145857508373ffffffffffffffffffffffffffffffffffffffff166114408461052f565b73ffffffffffffffffffffffffffffffffffffffff16145b91505092915050565b8273ffffffffffffffffffffffffffffffffffffffff16611481826108a9565b73ffffffffffffffffffffffffffffffffffffffff16146114d7576040517f08c379a00000000000000000000000000000000000000000000000000000000081526004016114ce90612d91565b60405180910390fd5b600073ffffffffffffffffffffffffffffffffffffffff168273ffffffffffffffffffffffffffffffffffffffff161415611547576040517f08c379a000000000000000000000000000000000000000000000000000000000815260040161153e90612dd1565b60405180910390fd5b611552838383611f34565b61155d600082611313565b6001600360008573ffffffffffffffffffffffffffffffffffffffff1673ffffffffffffffffffffffffffffffffffffffff16815260200190815260200160002060008282546115ad919061309b565b925050819055506001600360008473ffffffffffffffffffffffffffffffffffffffff1673ffffffffffffffffffffffffffffffffffffffff16815260200190815260200160002060008282546116049190612fba565b92505081905550816002600083815260200190815260200160002060006101000a81548173ffffffffffffffffffffffffffffffffffffffff021916908373ffffffffffffffffffffffffffffffffffffffff160217905550808273ffffffffffffffffffffffffffffffffffffffff168473ffffffffffffffffffffffffffffffffffffffff167fddf252ad1be2c89b69c2b068fc378daa952ba7f163c4a11628f55a4df523b3ef60405160405180910390a46116c3838383611f39565b505050565b60606000821415611710576040518060400160405280600181526020017f30000000000000000000000000000000000000000000000000000000000000008152509050611870565b600082905060005b6000821461174257808061172b906131e8565b915050600a8261173b9190613010565b9150611718565b60008167ffffffffffffffff811115611784577f4e487b7100000000000000000000000000000000000000000000000000000000600052604160045260246000fd5b6040519080825280601f01601f1916602001820160405280156117b65781602001600182028036833780820191505090505b5090505b60008514611869576001826117cf919061309b565b9150600a856117de9190613231565b60306117ea9190612fba565b60f81b818381518110611826577f4e487b7100000000000000000000000000000000000000000000000000000000600052603260045260246000fd5b60200101907effffffffffffffffffffffffffffffffffffffffffffffffffffffffffffff1916908160001a905350600a856118629190613010565b94506117ba565b8093505050505b919050565b6000816040516020016118889190612ace565b6040516020818303038152906040528051906020012060001c9050919050565b61194082826040516024016118be929190612d03565b6040516020818303038152906040527f9710a9d0000000000000000000000000000000000000000000000000000000007bffffffffffffffffffffffffffffffffffffffffffffffffffffffff19166020820180517bffffffffffffffffffffffffffffffffffffffffffffffffffffffff8381831617835250505050611e9f565b5050565b600081600001549050919050565b8173ffffffffffffffffffffffffffffffffffffffff168373ffffffffffffffffffffffffffffffffffffffff1614156119c1576040517f08c379a00000000000000000000000000000000000000000000000000000000081526004016119b890612df1565b60405180910390fd5b80600560008573ffffffffffffffffffffffffffffffffffffffff1673ffffffffffffffffffffffffffffffffffffffff16815260200190815260200160002060008473ffffffffffffffffffffffffffffffffffffffff1673ffffffffffffffffffffffffffffffffffffffff16815260200190815260200160002060006101000a81548160ff0219169083151502179055508173ffffffffffffffffffffffffffffffffffffffff168373ffffffffffffffffffffffffffffffffffffffff167f17307eab39ab6107e8899845ad3d59bd9653f200f220920489ca2b5937696c3183604051611ab29190612cc6565b60405180910390a3505050565b611aca848484611461565b611ad684848484611f3e565b611b15576040517f08c379a0000000000000000000000000000000000000000000000000000000008152600401611b0c90612d71565b60405180910390fd5b50505050565b606060405180602001604052806000815250905090565b6060611b3d826112c0565b6000611b47611b1b565b90506000815111611b675760405180602001604052806000815250611b92565b80611b71846116c8565b604051602001611b82929190612ae5565b6040516020818303038152906040525b915050919050565b60606000825190506000811415611bc35760405180602001604052806000815250915050611d53565b60006003600283611bd49190612fba565b611bde9190613010565b6004611bea9190613041565b90506000602082611bfb9190612fba565b67ffffffffffffffff811115611c3a577f4e487b7100000000000000000000000000000000000000000000000000000000600052604160045260246000fd5b6040519080825280601f01601f191660200182016040528015611c6c5781602001600182028036833780820191505090505b5090506000604051806060016040528060408152602001613887604091399050600181016020830160005b86811015611d105760038101905062ffffff818a015116603f8160121c168401518060081b905060ff603f83600c1c1686015116810190508060081b905060ff603f8360061c1686015116810190508060081b905060ff603f831686015116810190508060e01b90508084526004840193505050611c97565b506003860660018114611d2a5760028114611d3a57611d45565b613d3d60f01b6002830352611d45565b603d60f81b60018303525b508484525050819450505050505b919050565b611d728282604051806020016040528060008152506120d5565b5050565b611d7f82611ec8565b611dbe576040517f08c379a0000000000000000000000000000000000000000000000000000000008152600401611db590612e31565b60405180910390fd5b80600660008481526020019081526020016000209080519060200190611de592919061232d565b505050565b611e84838383604051602401611e0293929190612d33565b6040516020818303038152906040527fe3849f79000000000000000000000000000000000000000000000000000000007bffffffffffffffffffffffffffffffffffffffffffffffffffffffff19166020820180517bffffffffffffffffffffffffffffffffffffffffffffffffffffffff8381831617835250505050611e9f565b505050565b6001816000016000828254019250508190555050565b60008151905060006a636f6e736f6c652e6c6f679050602083016000808483855afa5050505050565b60008073ffffffffffffffffffffffffffffffffffffffff166002600084815260200190815260200160002060009054906101000a900473ffffffffffffffffffffffffffffffffffffffff1673ffffffffffffffffffffffffffffffffffffffff1614159050919050565b505050565b505050565b6000611f5f8473ffffffffffffffffffffffffffffffffffffffff16612130565b156120c8578373ffffffffffffffffffffffffffffffffffffffff1663150b7a02611f8861130b565b8786866040518563ffffffff1660e01b8152600401611faa9493929190612c51565b602060405180830381600087803b158015611fc457600080fd5b505af1925050508015611ff557506040513d601f19601f82011682018060405250810190611ff29190612671565b60015b612078573d8060008114612025576040519150601f19603f3d011682016040523d82523d6000602084013e61202a565b606091505b50600081511415612070576040517f08c379a000000000000000000000000000000000000000000000000000000000815260040161206790612d71565b60405180910390fd5b805181602001fd5b63150b7a0260e01b7bffffffffffffffffffffffffffffffffffffffffffffffffffffffff1916817bffffffffffffffffffffffffffffffffffffffffffffffffffffffff1916149150506120cd565b600190505b949350505050565b6120df8383612153565b6120ec6000848484611f3e565b61212b576040517f08c379a000000000000000000000000000000000000000000000000000000000815260040161212290612d71565b60405180910390fd5b505050565b6000808273ffffffffffffffffffffffffffffffffffffffff163b119050919050565b600073ffffffffffffffffffffffffffffffffffffffff168273ffffffffffffffffffffffffffffffffffffffff1614156121c3576040517f08c379a00000000000000000000000000000000000000000000000000000000081526004016121ba90612e71565b60405180910390fd5b6121cc81611ec8565b1561220c576040517f08c379a000000000000000000000000000000000000000000000000000000000815260040161220390612db1565b60405180910390fd5b61221860008383611f34565b6001600360008473ffffffffffffffffffffffffffffffffffffffff1673ffffffffffffffffffffffffffffffffffffffff16815260200190815260200160002060008282546122689190612fba565b92505081905550816002600083815260200190815260200160002060006101000a81548173ffffffffffffffffffffffffffffffffffffffff021916908373ffffffffffffffffffffffffffffffffffffffff160217905550808273ffffffffffffffffffffffffffffffffffffffff16600073ffffffffffffffffffffffffffffffffffffffff167fddf252ad1be2c89b69c2b068fc378daa952ba7f163c4a11628f55a4df523b3ef60405160405180910390a461232960008383611f39565b5050565b82805461233990613185565b90600052602060002090601f01602090048101928261235b57600085556123a2565b82601f1061237457805160ff19168380011785556123a2565b828001600101855582156123a2579182015b828111156123a1578251825591602001919060010190612386565b5b5090506123af91906123b3565b5090565b5b808211156123cc5760008160009055506001016123b4565b5090565b60006123e36123de84612f31565b612f0c565b9050828152602081018484840111156123fb57600080fd5b612406848285613143565b509392505050565b60008135905061241d81613805565b92915050565b6000813590506124328161381c565b92915050565b60008135905061244781613833565b92915050565b60008151905061245c81613833565b92915050565b600082601f83011261247357600080fd5b81356124838482602086016123d0565b91505092915050565b60008135905061249b8161384a565b92915050565b6000602082840312156124b357600080fd5b60006124c18482850161240e565b91505092915050565b600080604083850312156124dd57600080fd5b60006124eb8582860161240e565b92505060206124fc8582860161240e565b9150509250929050565b60008060006060848603121561251b57600080fd5b60006125298682870161240e565b935050602061253a8682870161240e565b925050604061254b8682870161248c565b9150509250925092565b6000806000806080858703121561256b57600080fd5b60006125798782880161240e565b945050602061258a8782880161240e565b935050604061259b8782880161248c565b925050606085013567ffffffffffffffff8111156125b857600080fd5b6125c487828801612462565b91505092959194509250565b600080604083850312156125e357600080fd5b60006125f18582860161240e565b925050602061260285828601612423565b9150509250929050565b6000806040838503121561261f57600080fd5b600061262d8582860161240e565b925050602061263e8582860161248c565b9150509250929050565b60006020828403121561265a57600080fd5b600061266884828501612438565b91505092915050565b60006020828403121561268357600080fd5b60006126918482850161244d565b91505092915050565b6000602082840312156126ac57600080fd5b60006126ba8482850161248c565b91505092915050565b6126cc816130cf565b82525050565b6126db816130e1565b82525050565b60006126ec82612f77565b6126f68185612f8d565b9350612706818560208601613152565b61270f8161331e565b840191505092915050565b600061272582612f82565b61272f8185612f9e565b935061273f818560208601613152565b6127488161331e565b840191505092915050565b600061275e82612f82565b6127688185612faf565b9350612778818560208601613152565b80840191505092915050565b6000815461279181613185565b61279b8186612faf565b945060018216600081146127b657600181146127c7576127fa565b60ff198316865281860193506127fa565b6127d085612f62565b60005b838110156127f2578154818901526001820191506020810190506127d3565b838801955050505b50505092915050565b6000612810603283612f9e565b915061281b8261332f565b604082019050919050565b6000612833602583612f9e565b915061283e8261337e565b604082019050919050565b6000612856601c83612f9e565b9150612861826133cd565b602082019050919050565b6000612879600a83612faf565b9150612884826133f6565b600a82019050919050565b600061289c602483612f9e565b91506128a78261341f565b604082019050919050565b60006128bf601983612f9e565b91506128ca8261346e565b602082019050919050565b60006128e2606383612faf565b91506128ed82613497565b606382019050919050565b6000612905600b83612faf565b915061291082613532565b600b82019050919050565b6000612928600d83612faf565b91506129338261355b565b600d82019050919050565b600061294b602983612f9e565b915061295682613584565b604082019050919050565b600061296e602e83612f9e565b9150612979826135d3565b604082019050919050565b6000612991600283612faf565b915061299c82613622565b600282019050919050565b60006129b4603e83612f9e565b91506129bf8261364b565b604082019050919050565b60006129d7602083612f9e565b91506129e28261369a565b602082019050919050565b60006129fa600a83612faf565b9150612a05826136c3565b600a82019050919050565b6000612a1d601883612f9e565b9150612a28826136ec565b602082019050919050565b6000612a40602183612f9e565b9150612a4b82613715565b604082019050919050565b6000612a63600a83612faf565b9150612a6e82613764565b600a82019050919050565b6000612a86601d83612faf565b9150612a918261378d565b601d82019050919050565b6000612aa9602e83612f9e565b9150612ab4826137b6565b604082019050919050565b612ac881613139565b82525050565b6000612ada8284612753565b915081905092915050565b6000612af18285612753565b9150612afd8284612753565b91508190509392505050565b6000612b158286612753565b9150612b218285612753565b9150612b2d8284612753565b9150819050949350505050565b6000612b468285612784565b9150612b528284612753565b9150612b5d8261291b565b91508190509392505050565b6000612b748261286c565b9150612b808284612753565b915081905092915050565b6000612b96826128f8565b9150612ba28284612753565b915081905092915050565b6000612bb8826129ed565b9150612bc48285612753565b9150612bcf826128d5565b9150612bdb8284612753565b9150612be682612984565b91508190509392505050565b6000612bfd82612a56565b9150612c098284612753565b915081905092915050565b6000612c1f82612a79565b9150612c2b8284612753565b915081905092915050565b6000602082019050612c4b60008301846126c3565b92915050565b6000608082019050612c6660008301876126c3565b612c7360208301866126c3565b612c806040830185612abf565b8181036060830152612c9281846126e1565b905095945050505050565b6000604082019050612cb260008301856126c3565b612cbf6020830184612abf565b9392505050565b6000602082019050612cdb60008301846126d2565b92915050565b60006020820190508181036000830152612cfb818461271a565b905092915050565b60006040820190508181036000830152612d1d818561271a565b9050612d2c6020830184612abf565b9392505050565b60006060820190508181036000830152612d4d818661271a565b9050612d5c6020830185612abf565b612d6960408301846126c3565b949350505050565b60006020820190508181036000830152612d8a81612803565b9050919050565b60006020820190508181036000830152612daa81612826565b9050919050565b60006020820190508181036000830152612dca81612849565b9050919050565b60006020820190508181036000830152612dea8161288f565b9050919050565b60006020820190508181036000830152612e0a816128b2565b9050919050565b60006020820190508181036000830152612e2a8161293e565b9050919050565b60006020820190508181036000830152612e4a81612961565b9050919050565b60006020820190508181036000830152612e6a816129a7565b9050919050565b60006020820190508181036000830152612e8a816129ca565b9050919050565b60006020820190508181036000830152612eaa81612a10565b9050919050565b60006020820190508181036000830152612eca81612a33565b9050919050565b60006020820190508181036000830152612eea81612a9c565b9050919050565b6000602082019050612f066000830184612abf565b92915050565b6000612f16612f27565b9050612f2282826131b7565b919050565b6000604051905090565b600067ffffffffffffffff821115612f4c57612f4b6132ef565b5b612f558261331e565b9050602081019050919050565b60008190508160005260206000209050919050565b600081519050919050565b600081519050919050565b600082825260208201905092915050565b600082825260208201905092915050565b600081905092915050565b6000612fc582613139565b9150612fd083613139565b9250827fffffffffffffffffffffffffffffffffffffffffffffffffffffffffffffffff0382111561300557613004613262565b5b828201905092915050565b600061301b82613139565b915061302683613139565b92508261303657613035613291565b5b828204905092915050565b600061304c82613139565b915061305783613139565b9250817fffffffffffffffffffffffffffffffffffffffffffffffffffffffffffffffff04831182151516156130905761308f613262565b5b828202905092915050565b60006130a682613139565b91506130b183613139565b9250828210156130c4576130c3613262565b5b828203905092915050565b60006130da82613119565b9050919050565b60008115159050919050565b60007fffffffff0000000000000000000000000000000000000000000000000000000082169050919050565b600073ffffffffffffffffffffffffffffffffffffffff82169050919050565b6000819050919050565b82818337600083830152505050565b60005b83811015613170578082015181840152602081019050613155565b8381111561317f576000848401525b50505050565b6000600282049050600182168061319d57607f821691505b602082108114156131b1576131b06132c0565b5b50919050565b6131c08261331e565b810181811067ffffffffffffffff821117156131df576131de6132ef565b5b80604052505050565b60006131f382613139565b91507fffffffffffffffffffffffffffffffffffffffffffffffffffffffffffffffff82141561322657613225613262565b5b600182019050919050565b600061323c82613139565b915061324783613139565b92508261325757613256613291565b5b828206905092915050565b7f4e487b7100000000000000000000000000000000000000000000000000000000600052601160045260246000fd5b7f4e487b7100000000000000000000000000000000000000000000000000000000600052601260045260246000fd5b7f4e487b7100000000000000000000000000000000000000000000000000000000600052602260045260246000fd5b7f4e487b7100000000000000000000000000000000000000000000000000000000600052604160045260246000fd5b6000601f19601f8301169050919050565b7f4552433732313a207472616e7366657220746f206e6f6e20455243373231526560008201527f63656976657220696d706c656d656e7465720000000000000000000000000000602082015250565b7f4552433732313a207472616e736665722066726f6d20696e636f72726563742060008201527f6f776e6572000000000000000000000000000000000000000000000000000000602082015250565b7f4552433732313a20746f6b656e20616c7265616479206d696e74656400000000600082015250565b7f54484952445f574f524400000000000000000000000000000000000000000000600082015250565b7f4552433732313a207472616e7366657220746f20746865207a65726f2061646460008201527f7265737300000000000000000000000000000000000000000000000000000000602082015250565b7f4552433732313a20617070726f766520746f2063616c6c657200000000000000600082015250565b7f222c20226465736372697074696f6e223a20224120686967686c79206163636c60008201527f61696d656420636f6c6c656374696f6e206f6620737175617265732e222c202260208201527f696d616765223a2022646174613a696d6167652f7376672b786d6c3b6261736560408201527f36342c0000000000000000000000000000000000000000000000000000000000606082015250565b7f5345434f4e445f574f5244000000000000000000000000000000000000000000600082015250565b7f3c2f746578743e3c2f7376673e00000000000000000000000000000000000000600082015250565b7f4552433732313a2061646472657373207a65726f206973206e6f74206120766160008201527f6c6964206f776e65720000000000000000000000000000000000000000000000602082015250565b7f45524337323155524953746f726167653a2055524920736574206f66206e6f6e60008201527f6578697374656e7420746f6b656e000000000000000000000000000000000000602082015250565b7f227d000000000000000000000000000000000000000000000000000000000000600082015250565b7f4552433732313a20617070726f76652063616c6c6572206973206e6f7420746f60008201527f6b656e206f776e6572206e6f7220617070726f76656420666f7220616c6c0000602082015250565b7f4552433732313a206d696e7420746f20746865207a65726f2061646472657373600082015250565b7f7b226e616d65223a202200000000000000000000000000000000000000000000600082015250565b7f4552433732313a20696e76616c696420746f6b656e2049440000000000000000600082015250565b7f4552433732313a20617070726f76616c20746f2063757272656e74206f776e6560008201527f7200000000000000000000000000000000000000000000000000000000000000602082015250565b7f46495253545f574f524400000000000000000000000000000000000000000000600082015250565b7f646174613a6170706c69636174696f6e2f6a736f6e3b6261736536342c000000600082015250565b7f4552433732313a2063616c6c6572206973206e6f7420746f6b656e206f776e6560008201527f72206e6f7220617070726f766564000000000000000000000000000000000000602082015250565b61380e816130cf565b811461381957600080fd5b50565b613825816130e1565b811461383057600080fd5b50565b61383c816130ed565b811461384757600080fd5b50565b61385381613139565b811461385e57600080fd5b5056fe416e204e465420772f20494420257320686173206265656e206d696e74656420746f2025734142434445464748494a4b4c4d4e4f505152535455565758595a6162636465666768696a6b6c6d6e6f707172737475767778797a303132333435363738392b2fa264697066735822122073eb48d3b2e21593c870fae11bc52ed1b4a8056165cc4467501ba441dfd0834e64736f6c634300080400333c73766720786d6c6e733d27687474703a2f2f7777772e77332e6f72672f323030302f73766727207072657365727665417370656374526174696f3d27784d696e594d696e206d656574272076696577426f783d273020302033353020333530273e3c7374796c653e2e62617365207b2066696c6c3a2077686974653b20666f6e742d66616d696c793a2073657269663b20666f6e742d73697a653a20323470783b207d3c2f7374796c653e3c726563742077696474683d273130302527206865696768743d2731303025272066696c6c3d27626c61636b27202f3e3c7465787420783d273530252720793d273530252720636c6173733d27626173652720646f6d696e616e742d626173656c696e653d276d6964646c652720746578742d616e63686f723d276d6964646c65273e",
  "linkReferences": {},
  "deployedLinkReferences": {}
}